{
   "_format": "hh-sol-artifact-1",
   "contractName": "TraizeContract",
   "sourceName": "contracts/TraizeContract.sol",
   "abi": [
      {
         "anonymous": false,
         "inputs": [
            {
               "indexed": false,
               "internalType": "address",
               "name": "recipient",
               "type": "address"
            },
            {
               "indexed": false,
               "internalType": "uint256",
               "name": "productId",
               "type": "uint256"
            }
         ],
         "name": "addProduct",
         "type": "event"
      },
      {
         "inputs": [
            {
               "internalType": "string",
               "name": "name",
               "type": "string"
            },
            {
               "internalType": "string",
               "name": "location",
               "type": "string"
            },
            {
               "internalType": "uint256",
               "name": "id",
               "type": "uint256"
            },
            {
               "internalType": "uint256",
               "name": "day",
               "type": "uint256"
            },
            {
               "internalType": "uint256",
               "name": "month",
               "type": "uint256"
            },
            {
               "internalType": "uint256",
               "name": "year",
               "type": "uint256"
            },
            {
               "internalType": "uint256",
               "name": "hr",
               "type": "uint256"
            },
            {
               "internalType": "uint256",
               "name": "min",
               "type": "uint256"
            }
         ],
         "name": "addUserProduct",
         "outputs": [],
         "stateMutability": "nonpayable",
         "type": "function"
      },
      {
         "inputs": [
            {
               "internalType": "uint256",
               "name": "id",
               "type": "uint256"
            }
         ],
         "name": "getProductOwnerAddress",
         "outputs": [
            {
               "internalType": "address",
               "name": "",
               "type": "address"
            }
         ],
         "stateMutability": "view",
         "type": "function"
      },
      {
         "inputs": [
            {
               "internalType": "uint256",
               "name": "id",
               "type": "uint256"
            }
         ],
         "name": "getSingleProductDetail",
         "outputs": [
            {
               "components": [
                  {
                     "internalType": "string",
                     "name": "name",
                     "type": "string"
                  },
                  {
                     "internalType": "string",
                     "name": "location",
                     "type": "string"
                  },
                  {
                     "internalType": "uint256",
                     "name": "id",
                     "type": "uint256"
                  },
                  {
                     "components": [
                        {
                           "internalType": "uint256",
                           "name": "day",
                           "type": "uint256"
                        },
                        {
                           "internalType": "uint256",
                           "name": "month",
                           "type": "uint256"
                        },
                        {
                           "internalType": "uint256",
                           "name": "year",
                           "type": "uint256"
                        },
                        {
                           "internalType": "uint256",
                           "name": "hr",
                           "type": "uint256"
                        },
                        {
                           "internalType": "uint256",
                           "name": "min",
                           "type": "uint256"
                        }
                     ],
                     "internalType": "struct TraizeContract.DateData",
                     "name": "date",
                     "type": "tuple"
                  },
                  {
                     "internalType": "address",
                     "name": "owner",
                     "type": "address"
                  }
               ],
               "internalType": "struct TraizeContract.Product",
               "name": "",
               "type": "tuple"
            }
         ],
         "stateMutability": "view",
         "type": "function"
      }
   ],
   "bytecode": "0x608060405234801561001057600080fd5b50610c76806100206000396000f3fe608060405234801561001057600080fd5b50600436106100415760003560e01c806351a03a88146100465780639bcb7c4814610076578063ad4243f5146100a6575b600080fd5b610060600480360381019061005b919061073b565b6100c2565b60405161006d91906107a9565b60405180910390f35b610090600480360381019061008b919061073b565b6100ff565b60405161009d9190610962565b60405180910390f35b6100c060048036038101906100bb9190610ab9565b6102f6565b005b60006001600083815260200190815260200160002060009054906101000a900473ffffffffffffffffffffffffffffffffffffffff169050919050565b6101076105d4565b600260008381526020019081526020016000206040518060a001604052908160008201805461013590610bd6565b80601f016020809104026020016040519081016040528092919081815260200182805461016190610bd6565b80156101ae5780601f10610183576101008083540402835291602001916101ae565b820191906000526020600020905b81548152906001019060200180831161019157829003601f168201915b505050505081526020016001820180546101c790610bd6565b80601f01602080910402602001604051908101604052809291908181526020018280546101f390610bd6565b80156102405780601f1061021557610100808354040283529160200191610240565b820191906000526020600020905b81548152906001019060200180831161022357829003601f168201915b5050505050815260200160028201548152602001600382016040518060a00160405290816000820154815260200160018201548152602001600282015481526020016003820154815260200160048201548152505081526020016008820160009054906101000a900473ffffffffffffffffffffffffffffffffffffffff1673ffffffffffffffffffffffffffffffffffffffff1673ffffffffffffffffffffffffffffffffffffffff16815250509050919050565b60006040518060a00160405280878152602001868152602001858152602001848152602001838152509050600033905060006040518060a001604052808c81526020018b81526020018a81526020018481526020018373ffffffffffffffffffffffffffffffffffffffff16815250905033600160008b815260200190815260200160002060006101000a81548173ffffffffffffffffffffffffffffffffffffffff021916908373ffffffffffffffffffffffffffffffffffffffff16021790555080600260008b815260200190815260200160002060008201518160000190805190602001906103e992919061061f565b50602082015181600101908051906020019061040692919061061f565b50604082015181600201556060820151816003016000820151816000015560208201518160010155604082015181600201556060820151816003015560808201518160040155505060808201518160080160006101000a81548173ffffffffffffffffffffffffffffffffffffffff021916908373ffffffffffffffffffffffffffffffffffffffff160217905550905050600081908060018154018082558091505060019003906000526020600020906009020160009091909190915060008201518160000190805190602001906104e092919061061f565b5060208201518160010190805190602001906104fd92919061061f565b50604082015181600201556060820151816003016000820151816000015560208201518160010155604082015181600201556060820151816003015560808201518160040155505060808201518160080160006101000a81548173ffffffffffffffffffffffffffffffffffffffff021916908373ffffffffffffffffffffffffffffffffffffffff16021790555050507fd5c56c868bdc7f3ffd32c1fc57a7ee2970a465b2b9631a4550312d29150c523c338a6040516105bf929190610c17565b60405180910390a15050505050505050505050565b6040518060a001604052806060815260200160608152602001600081526020016105fc6106a5565b8152602001600073ffffffffffffffffffffffffffffffffffffffff1681525090565b82805461062b90610bd6565b90600052602060002090601f01602090048101928261064d5760008555610694565b82601f1061066657805160ff1916838001178555610694565b82800160010185558215610694579182015b82811115610693578251825591602001919060010190610678565b5b5090506106a191906106d4565b5090565b6040518060a0016040528060008152602001600081526020016000815260200160008152602001600081525090565b5b808211156106ed5760008160009055506001016106d5565b5090565b6000604051905090565b600080fd5b600080fd5b6000819050919050565b61071881610705565b811461072357600080fd5b50565b6000813590506107358161070f565b92915050565b600060208284031215610751576107506106fb565b5b600061075f84828501610726565b91505092915050565b600073ffffffffffffffffffffffffffffffffffffffff82169050919050565b600061079382610768565b9050919050565b6107a381610788565b82525050565b60006020820190506107be600083018461079a565b92915050565b600081519050919050565b600082825260208201905092915050565b60005b838110156107fe5780820151818401526020810190506107e3565b8381111561080d576000848401525b50505050565b6000601f19601f8301169050919050565b600061082f826107c4565b61083981856107cf565b93506108498185602086016107e0565b61085281610813565b840191505092915050565b61086681610705565b82525050565b60a082016000820151610882600085018261085d565b506020820151610895602085018261085d565b5060408201516108a8604085018261085d565b5060608201516108bb606085018261085d565b5060808201516108ce608085018261085d565b50505050565b6108dd81610788565b82525050565b60006101208301600083015184820360008601526109018282610824565b9150506020830151848203602086015261091b8282610824565b9150506040830151610930604086018261085d565b506060830151610943606086018261086c565b5060808301516109576101008601826108d4565b508091505092915050565b6000602082019050818103600083015261097c81846108e3565b905092915050565b600080fd5b600080fd5b7f4e487b7100000000000000000000000000000000000000000000000000000000600052604160045260246000fd5b6109c682610813565b810181811067ffffffffffffffff821117156109e5576109e461098e565b5b80604052505050565b60006109f86106f1565b9050610a0482826109bd565b919050565b600067ffffffffffffffff821115610a2457610a2361098e565b5b610a2d82610813565b9050602081019050919050565b82818337600083830152505050565b6000610a5c610a5784610a09565b6109ee565b905082815260208101848484011115610a7857610a77610989565b5b610a83848285610a3a565b509392505050565b600082601f830112610aa057610a9f610984565b5b8135610ab0848260208601610a49565b91505092915050565b600080600080600080600080610100898b031215610ada57610ad96106fb565b5b600089013567ffffffffffffffff811115610af857610af7610700565b5b610b048b828c01610a8b565b985050602089013567ffffffffffffffff811115610b2557610b24610700565b5b610b318b828c01610a8b565b9750506040610b428b828c01610726565b9650506060610b538b828c01610726565b9550506080610b648b828c01610726565b94505060a0610b758b828c01610726565b93505060c0610b868b828c01610726565b92505060e0610b978b828c01610726565b9150509295985092959890939650565b7f4e487b7100000000000000000000000000000000000000000000000000000000600052602260045260246000fd5b60006002820490506001821680610bee57607f821691505b60208210811415610c0257610c01610ba7565b5b50919050565b610c1181610705565b82525050565b6000604082019050610c2c600083018561079a565b610c396020830184610c08565b939250505056fea26469706673582212208bfe4885261159ae1de638124dd2494310270962ea829bb56caba31ae3095d0f64736f6c63430008090033",
   "linkReferences": {},
   "deployedLinkReferences": {}
}